:100000000C942A000C943C000C943C000C943C0092
:100010000C943C000C943C000C943C000C943C0070
:100020000C943C000C943C000C943C000C943C0060
:100030000C943C000C943C000C943C000C943C0050
:100040000C943C000C943C000C943C000C943C0040
:100050000C943C0011241FBECFE5D4E0DEBFCDBF21
:1000600010E0A0E6B0E001C01D92A336B107E1F7B1
:100070000E9486020C94CC020C940000DF93CF9374
:10008000CDB7DEB727970FB6F894DEBF0FBECDBF52
:100090008A836B834C8319828A81282F30E03F83C7
:1000A0002E838E819F818130910509F44BC02E8172
:1000B0003F81223031052CF48E819F81009771F0B1
:1000C000DDC02E813F812230310509F46FC08E8161
:1000D0009F818330910509F49DC0D0C08C8181300F
:1000E000A1F4ABE3B0E0EBE3F0E08081482F8B813B
:1000F000282F30E081E090E0022E02C0880F991F87
:100100000A94E2F7842B8C93BEC08C818823A9F4D7
:10011000ABE3B0E0EBE3F0E08081482F8B81282F48
:1001200030E081E090E0022E02C0880F991F0A940F
:10013000E2F7809584238C93A6C081E0898399811E
:100140009D83A3C08C818130A1F4A8E3B0E0E8E3F3
:10015000F0E08081482F8B81282F30E081E090E013
:10016000022E02C0880F991F0A94E2F7842B8C9309
:100170008AC08C818823A9F4A8E3B0E0E8E3F0E02A
:100180008081482F8B81282F30E081E090E0022E83
:1001900002C0880F991F0A94E2F7809584238C93FC
:1001A00072C081E0898329812D836FC08C81813069
:1001B000A1F4A5E3B0E0E5E3F0E08081482F8B8176
:1001C000282F30E081E090E0022E02C0880F991FB6
:1001D0000A94E2F7842B8C9356C08C818823A9F46F
:1001E000A5E3B0E0E5E3F0E08081482F8B81282F84
:1001F00030E081E090E0022E02C0880F991F0A943F
:10020000E2F7809584238C933EC081E08983398115
:100210003D833BC08C818130A1F4A2E3B0E0E2E3F6
:10022000F0E08081482F8B81282F30E081E090E042
:10023000022E02C0880F991F0A94E2F7842B8C9338
:1002400022C08C818823A9F4A2E3B0E0E2E3F0E0CD
:100250008081482F8B81282F30E081E090E0022EB2
:1002600002C0880F991F0A94E2F7809584238C932B
:100270000AC081E0898389818D8307C081E08983F9
:1002800099819D8302C029812D838D8127960FB688
:10029000F894DEBF0FBECDBFCF91DF910895DF93FD
:1002A000CF9300D000D000D0CDB7DEB78A836B8368
:1002B00019828A81282F30E03E832D838D819E8193
:1002C0008130910549F12D813E81223031052CF498
:1002D0008D819E81009761F05BC02D813E8122302F
:1002E000310571F18D819E8183309105E9F150C016
:1002F0008B81813029F4EBE3F0E081E080834DC015
:100300008B81882321F4EBE3F0E0108246C081E08A
:10031000898399819C8343C08B81813029F4E8E3F0
:10032000F0E081E0808339C08B81882321F4E8E309
:10033000F0E0108232C081E0898329812C832FC0B4
:100340008B81813029F4E5E3F0E081E0808325C0F2
:100350008B81882321F4E5E3F0E010821EC081E068
:10036000898339813C831BC08B81813029F4E2E38E
:10037000F0E081E0808311C08B81882321F4E2E3E7
:10038000F0E010820AC081E0898389818C8307C0F4
:1003900081E0898399819C8302C029812C838C818F
:1003A00026960FB6F894DEBF0FBECDBFCF91DF917A
:1003B0000895DF93CF93CDB7DEB727970FB6F894A4
:1003C000DEBF0FBECDBF8A836B835D834C831982F2
:1003D0008A81282F30E03F832E834E815F81413018
:1003E000510559F18E819F818230910534F42E811F
:1003F0003F812115310569F05CC04E815F8142303B
:10040000510579F18E819F818330910509F43DC0BA
:1004100050C0E9E3F0E08081282F30E08B81882F05
:1004200090E0A90102C0559547958A95E2F7CA0167
:100430008170EC81FD8180833EC0E6E3F0E0808145
:10044000282F30E08B81882F90E0A90102C05595BC
:1004500047958A95E2F7CA018170EC81FD8180831E
:100460002AC0E3E3F0E08081282F30E08B81882FE1
:1004700090E0A90102C0559547958A95E2F7CA0117
:100480008170EC81FD81808316C0E0E3F0E0808123
:10049000282F30E08B81882F90E0A90102C055956C
:1004A00047958A95E2F7CA018170EC81FD818083CE
:1004B00002C081E08983898127960FB6F894DEBF58
:1004C0000FBECDBFCF91DF910895DF93CF93CDB70E
:1004D000DEB7EAE3F0E083E08083E7E3F0E0108258
:1004E000E4E3F0E01082E1E3F0E01082EBE3F0E01F
:1004F0001082E8E3F0E087E08083E5E3F0E010823B
:10050000E2E3F0E01082CF91DF910895DF93CF9383
:10051000CDB7DEB70E94650222E630E081E060E000
:10052000A9010E94D90180916200882351F480E0E2
:1005300060E041E00E943E0080E061E040E00E9417
:100540003E0021E630E081E061E0A9010E94D9018E
:1005500080916100882351F480E060E040E00E94D7
:100560003E0080E061E041E00E943E0020E630E095
:1005700081E062E0A9010E94D90180916000882396
:1005800059F680E060E041E00E943E0080E061E0DA
:0C05900041E00E943E00C0CFF894FFCF75
:00000001FF
