:100000000C942A000C943F000C943F000C943F0089
:100010000C943F000C943F000C943F000C943F0064
:100020000C943F000C943F000C943F000C943F0054
:100030000C943F000C943F000C943F000C943F0044
:100040000C943F000C943F000C943F000C943F0034
:100050000C943F0011241FBECFE5D8E0DEBFCDBF1A
:1000600010E0A0E6B0E0EEEBF5E002C005900D92E6
:10007000AA36B107D9F70E944D020C94DD020C9408
:100080000000DF93CF93CDB7DEB727970FB6F89474
:10009000DEBF0FBECDBF8A836B834C8319828A81FA
:1000A000282F30E03F832E838E819F818130910500
:1000B00009F44BC02E813F81223031052CF48E8112
:1000C0009F81009771F0DDC02E813F812230310584
:1000D00009F46FC08E819F818330910509F49DC022
:1000E000D0C08C818130A1F4ABE3B0E0EBE3F0E071
:1000F0008081482F8B81282F30E081E090E0022E14
:1001000002C0880F991F0A94E2F7842B8C93BEC01B
:100110008C818823A9F4ABE3B0E0EBE3F0E08081CD
:10012000482F8B81282F30E081E090E0022E02C022
:10013000880F991F0A94E2F7809584238C93A6C0B8
:1001400081E0898399819D83A3C08C818130A1F452
:10015000A8E3B0E0E8E3F0E08081482F8B81282F0E
:1001600030E081E090E0022E02C0880F991F0A94CF
:10017000E2F7842B8C938AC08C818823A9F4A8E3AE
:10018000B0E0E8E3F0E08081482F8B81282F30E059
:1001900081E090E0022E02C0880F991F0A94E2F7D6
:1001A000809584238C9372C081E0898329812D837B
:1001B0006FC08C818130A1F4A5E3B0E0E5E3F0E00D
:1001C0008081482F8B81282F30E081E090E0022E43
:1001D00002C0880F991F0A94E2F7842B8C9356C0B3
:1001E0008C818823A9F4A5E3B0E0E5E3F0E0808109
:1001F000482F8B81282F30E081E090E0022E02C052
:10020000880F991F0A94E2F7809584238C933EC04F
:1002100081E0898339813D833BC08C818130A1F4A9
:10022000A2E3B0E0E2E3F0E08081482F8B81282F49
:1002300030E081E090E0022E02C0880F991F0A94FE
:10024000E2F7842B8C9322C08C818823A9F4A2E34B
:10025000B0E0E2E3F0E08081482F8B81282F30E08E
:1002600081E090E0022E02C0880F991F0A94E2F705
:10027000809584238C930AC081E0898389818D8352
:1002800007C081E0898399819D8302C029812D83E4
:100290008D8127960FB6F894DEBF0FBECDBFCF91EC
:1002A000DF910895DF93CF9300D000D000D0CDB779
:1002B000DEB78A836B8319828A81282F30E03E83E0
:1002C0002D838D819E8181309105D1F02D813E81DC
:1002D000223031052CF48D819E81009761F01FC082
:1002E0002D813E812230310581F08D819E818330C8
:1002F000910581F014C0EBE3F0E08B81808314C0A2
:10030000E8E3F0E08B8180830FC0E5E3F0E08B81D0
:1003100080830AC0E2E3F0E08B81808305C081E046
:10032000898399819C8302C029812C838C812696A4
:100330000FB6F894DEBF0FBECDBFCF91DF91089509
:10034000DF93CF93CDB7DEB727970FB6F894DEBF14
:100350000FBECDBF8A836B835D834C8319828A81F4
:10036000282F30E03F832E834E815F81413051053D
:1003700059F18E819F818230910534F42E813F8125
:100380002115310569F05CC04E815F814230510515
:1003900079F18E819F818330910509F43DC050C071
:1003A000E9E3F0E08081282F30E08B81882F90E016
:1003B000A90102C0559547958A95E2F7CA01817057
:1003C000EC81FD8180833EC0E6E3F0E08081282F50
:1003D00030E08B81882F90E0A90102C055954795A8
:1003E0008A95E2F7CA018170EC81FD8180832AC081
:1003F000E3E3F0E08081282F30E08B81882F90E0CC
:10040000A90102C0559547958A95E2F7CA01817006
:10041000EC81FD81808316C0E0E3F0E08081282F2D
:1004200030E08B81882F90E0A90102C05595479557
:100430008A95E2F7CA018170EC81FD81808302C058
:1004400081E08983898127960FB6F894DEBF0FBEBD
:10045000CDBFCF91DF910895DF93CF93CDB7DEB7B6
:10046000EAE3F0E01082E7E3F0E08FEF8083E4E37B
:10047000F0E01082E1E3F0E01082EBE3F0E083E0F3
:100480008083E8E3F0E01082E5E3F0E01082E2E34D
:10049000F0E01082CF91DF910895DF93CF93CDB735
:1004A000DEB760970FB6F894DEBF0FBECDBFE7E3AF
:1004B000F0E08FEF8083AAE3B0E0EAE3F0E0808130
:1004C0008C7F8C93ABE3B0E0EBE3F0E08081836062
:1004D0008C931982CE0102969D878C87E0E6F0E02E
:1004E000FF87EE87FAE0F88BEE85FF8500808E852A
:1004F0009F8501969F878E87EC85FD8500828C8580
:100500009D8501969D878C8798899150988BE88965
:10051000EE2351F7E8E3F0E08A818083E9E3F0E03D
:100520008081882F90E0817090700097F1F489812C
:10053000893090F4A8E3B0E08981882F90E09C0195
:100540002F5F3F4FCE010296FC01E20FF31F808127
:100550008C9389818F5F8983E9E3F0E08081882F24
:1005600090E0817090700097B9F3E9E3F0E080814A
:10057000882F90E082709070009781F6898188239F
:1005800091F0A8E3B0E08981882F90E09C01215090
:100590003040CE010296FC01E20FF31F80818C9364
:1005A000898181508983E9E3F0E08081882F90E0A0
:0E05B000827090700097B9F3B1CFF894FFCF2E
:0A05BE003F065B4F666D7D077F6FFF
:00000001FF
